{
  "contractName": "StorageSystem",
  "abi": [
    {
      "inputs": [],
      "payable": false,
      "stateMutability": "nonpayable",
      "type": "constructor"
    },
    {
      "anonymous": false,
      "inputs": [
        {
          "indexed": false,
          "internalType": "string",
          "name": "fileName",
          "type": "string"
        },
        {
          "indexed": false,
          "internalType": "string",
          "name": "fileHash",
          "type": "string"
        },
        {
          "indexed": false,
          "internalType": "string",
          "name": "fileType",
          "type": "string"
        },
        {
          "indexed": false,
          "internalType": "string",
          "name": "fileDescription",
          "type": "string"
        },
        {
          "indexed": false,
          "internalType": "uint256",
          "name": "fileId",
          "type": "uint256"
        },
        {
          "indexed": false,
          "internalType": "uint256",
          "name": "fileSize",
          "type": "uint256"
        },
        {
          "indexed": false,
          "internalType": "uint256",
          "name": "uploadTime",
          "type": "uint256"
        },
        {
          "indexed": false,
          "internalType": "address payable",
          "name": "uploader",
          "type": "address"
        }
      ],
      "name": "fileAdded",
      "type": "event"
    },
    {
      "constant": true,
      "inputs": [
        {
          "internalType": "uint256",
          "name": "",
          "type": "uint256"
        }
      ],
      "name": "files",
      "outputs": [
        {
          "internalType": "string",
          "name": "fileName",
          "type": "string"
        },
        {
          "internalType": "string",
          "name": "fileHash",
          "type": "string"
        },
        {
          "internalType": "string",
          "name": "fileType",
          "type": "string"
        },
        {
          "internalType": "string",
          "name": "fileDescription",
          "type": "string"
        },
        {
          "internalType": "uint256",
          "name": "fileId",
          "type": "uint256"
        },
        {
          "internalType": "uint256",
          "name": "fileSize",
          "type": "uint256"
        },
        {
          "internalType": "uint256",
          "name": "uploadTime",
          "type": "uint256"
        },
        {
          "internalType": "address payable",
          "name": "uploader",
          "type": "address"
        }
      ],
      "payable": false,
      "stateMutability": "view",
      "type": "function"
    },
    {
      "constant": true,
      "inputs": [],
      "name": "totalFiles",
      "outputs": [
        {
          "internalType": "uint256",
          "name": "",
          "type": "uint256"
        }
      ],
      "payable": false,
      "stateMutability": "view",
      "type": "function"
    },
    {
      "constant": false,
      "inputs": [
        {
          "internalType": "string",
          "name": "_fileName",
          "type": "string"
        },
        {
          "internalType": "string",
          "name": "_fileHash",
          "type": "string"
        },
        {
          "internalType": "string",
          "name": "_fileType",
          "type": "string"
        },
        {
          "internalType": "string",
          "name": "_fileDescription",
          "type": "string"
        },
        {
          "internalType": "uint256",
          "name": "_fileSize",
          "type": "uint256"
        }
      ],
      "name": "addingFile",
      "outputs": [],
      "payable": false,
      "stateMutability": "nonpayable",
      "type": "function"
    }
  ],
  "bytecode": "0x60806040526000805534801561001457600080fd5b50610f4f806100246000396000f3fe608060405234801561001057600080fd5b50600436106100415760003560e01c806320476b111461004657806392cf0557146102d0578063f4c714b4146102ee575b600080fd5b6102ce600480360360a081101561005c57600080fd5b810190808035906020019064010000000081111561007957600080fd5b82018360208201111561008b57600080fd5b803590602001918460018302840111640100000000831117156100ad57600080fd5b91908080601f016020809104026020016040519081016040528093929190818152602001838380828437600081840152601f19601f8201169050808301925050505050505091929192908035906020019064010000000081111561011057600080fd5b82018360208201111561012257600080fd5b8035906020019184600183028401116401000000008311171561014457600080fd5b91908080601f016020809104026020016040519081016040528093929190818152602001838380828437600081840152601f19601f820116905080830192505050505050509192919290803590602001906401000000008111156101a757600080fd5b8201836020820111156101b957600080fd5b803590602001918460018302840111640100000000831117156101db57600080fd5b91908080601f016020809104026020016040519081016040528093929190818152602001838380828437600081840152601f19601f8201169050808301925050505050505091929192908035906020019064010000000081111561023e57600080fd5b82018360208201111561025057600080fd5b8035906020019184600183028401116401000000008311171561027257600080fd5b91908080601f016020809104026020016040519081016040528093929190818152602001838380828437600081840152601f19601f82011690508083019250505050505050919291929080359060200190929190505050610521565b005b6102d8610b84565b6040518082815260200191505060405180910390f35b61031a6004803603602081101561030457600080fd5b8101908080359060200190929190505050610b8a565b60405180806020018060200180602001806020018981526020018881526020018781526020018673ffffffffffffffffffffffffffffffffffffffff1673ffffffffffffffffffffffffffffffffffffffff16815260200185810385528d818151815260200191508051906020019080838360005b838110156103aa57808201518184015260208101905061038f565b50505050905090810190601f1680156103d75780820380516001836020036101000a031916815260200191505b5085810384528c818151815260200191508051906020019080838360005b838110156104105780820151818401526020810190506103f5565b50505050905090810190601f16801561043d5780820380516001836020036101000a031916815260200191505b5085810383528b818151815260200191508051906020019080838360005b8381101561047657808201518184015260208101905061045b565b50505050905090810190601f1680156104a35780820380516001836020036101000a031916815260200191505b5085810382528a818151815260200191508051906020019080838360005b838110156104dc5780820151818401526020810190506104c1565b50505050905090810190601f1680156105095780820380516001836020036101000a031916815260200191505b509c5050505050505050505050505060405180910390f35b6000845111610598576040517f08c379a00000000000000000000000000000000000000000000000000000000081526004018080602001828103825260108152602001807f486173682069732072657175697265640000000000000000000000000000000081525060200191505060405180910390fd5b600085511161060f576040517f08c379a00000000000000000000000000000000000000000000000000000000081526004018080602001828103825260108152602001807f486173682069732072657175697265640000000000000000000000000000000081525060200191505060405180910390fd5b6000835111610686576040517f08c379a00000000000000000000000000000000000000000000000000000000081526004018080602001828103825260108152602001807f486173682069732072657175697265640000000000000000000000000000000081525060200191505060405180910390fd5b60008251116106fd576040517f08c379a00000000000000000000000000000000000000000000000000000000081526004018080602001828103825260108152602001807f486173682069732072657175697265640000000000000000000000000000000081525060200191505060405180910390fd5b60008111610773576040517f08c379a00000000000000000000000000000000000000000000000000000000081526004018080602001828103825260108152602001807f486173682069732072657175697265640000000000000000000000000000000081525060200191505060405180910390fd5b600073ffffffffffffffffffffffffffffffffffffffff163373ffffffffffffffffffffffffffffffffffffffff1614156107f9576040517f08c379a0000000000000000000000000000000000000000000000000000000008152600401808060200182810382526023815260200180610ef86023913960400191505060405180910390fd5b600080815480929190600101919050555060405180610100016040528086815260200185815260200184815260200183815260200160005481526020018281526020014281526020013373ffffffffffffffffffffffffffffffffffffffff168152506001600080548152602001908152602001600020600082015181600001908051906020019061088c929190610e52565b5060208201518160010190805190602001906108a9929190610e52565b5060408201518160020190805190602001906108c6929190610e52565b5060608201518160030190805190602001906108e3929190610e52565b506080820151816004015560a0820151816005015560c0820151816006015560e08201518160070160006101000a81548173ffffffffffffffffffffffffffffffffffffffff021916908373ffffffffffffffffffffffffffffffffffffffff1602179055509050507fad43a64656ade8cf23514f12283b89e494a6a4cbc58221fe9857b7a63fd5aab88585858560005486423360405180806020018060200180602001806020018981526020018881526020018781526020018673ffffffffffffffffffffffffffffffffffffffff1673ffffffffffffffffffffffffffffffffffffffff16815260200185810385528d818151815260200191508051906020019080838360005b83811015610a075780820151818401526020810190506109ec565b50505050905090810190601f168015610a345780820380516001836020036101000a031916815260200191505b5085810384528c818151815260200191508051906020019080838360005b83811015610a6d578082015181840152602081019050610a52565b50505050905090810190601f168015610a9a5780820380516001836020036101000a031916815260200191505b5085810383528b818151815260200191508051906020019080838360005b83811015610ad3578082015181840152602081019050610ab8565b50505050905090810190601f168015610b005780820380516001836020036101000a031916815260200191505b5085810382528a818151815260200191508051906020019080838360005b83811015610b39578082015181840152602081019050610b1e565b50505050905090810190601f168015610b665780820380516001836020036101000a031916815260200191505b509c5050505050505050505050505060405180910390a15050505050565b60005481565b6001602052806000526040600020600091509050806000018054600181600116156101000203166002900480601f016020809104026020016040519081016040528092919081815260200182805460018160011615610100020316600290048015610c365780601f10610c0b57610100808354040283529160200191610c36565b820191906000526020600020905b815481529060010190602001808311610c1957829003601f168201915b505050505090806001018054600181600116156101000203166002900480601f016020809104026020016040519081016040528092919081815260200182805460018160011615610100020316600290048015610cd45780601f10610ca957610100808354040283529160200191610cd4565b820191906000526020600020905b815481529060010190602001808311610cb757829003601f168201915b505050505090806002018054600181600116156101000203166002900480601f016020809104026020016040519081016040528092919081815260200182805460018160011615610100020316600290048015610d725780601f10610d4757610100808354040283529160200191610d72565b820191906000526020600020905b815481529060010190602001808311610d5557829003601f168201915b505050505090806003018054600181600116156101000203166002900480601f016020809104026020016040519081016040528092919081815260200182805460018160011615610100020316600290048015610e105780601f10610de557610100808354040283529160200191610e10565b820191906000526020600020905b815481529060010190602001808311610df357829003601f168201915b5050505050908060040154908060050154908060060154908060070160009054906101000a900473ffffffffffffffffffffffffffffffffffffffff16905088565b828054600181600116156101000203166002900490600052602060002090601f016020900481019282601f10610e9357805160ff1916838001178555610ec1565b82800160010185558215610ec1579182015b82811115610ec0578251825591602001919060010190610ea5565b5b509050610ece9190610ed2565b5090565b610ef491905b80821115610ef0576000816000905550600101610ed8565b5090565b9056fe55706c6f616465722073686f756c64206e6f7420626520746865206465706c6f796572a265627a7a72315820888e5b54a2f94e482ca8ad131c85de73ea075288387a3d6b93e8c1cb0434ae1e64736f6c63430005100032",
  "source": "//SPDX-License-Identifier: UNLICENSED\r\npragma solidity ^0.5.16;\r\n\r\ncontract StorageSystem {\r\n\r\n  uint public totalFiles = 0; \r\n  mapping(uint => fileDetails) public files;\r\n\r\n  struct fileDetails {\r\n    string fileName;\r\n    string fileHash;\r\n    string fileType;\r\n    string fileDescription;\r\n    uint fileId;\r\n    uint fileSize;\r\n    uint uploadTime;\r\n    address payable uploader;\r\n  }\r\n\r\n  event fileAdded( string fileName, string fileHash, string fileType, string fileDescription, uint fileId, uint fileSize, uint uploadTime, address payable uploader);\r\n\r\n    constructor() public {\r\n  }\r\n\r\n  function addingFile( string memory _fileName, string memory _fileHash, string memory _fileType, string memory _fileDescription, uint _fileSize) public {\r\n\r\n    require(bytes(_fileHash).length > 0,'Hash is required');\r\n    require(bytes(_fileName).length > 0,'Hash is required');\r\n    require(bytes(_fileType).length > 0,'Hash is required');\r\n    require(bytes(_fileDescription).length > 0,'Hash is required');\r\n    require(_fileSize > 0,'Hash is required');\r\n    require(msg.sender !=address(0),'Uploader should not be the deployer');\r\n    totalFiles++;\r\n    files[totalFiles] = fileDetails( _fileName, _fileHash, _fileType, _fileDescription, totalFiles,  _fileSize, block.timestamp, msg.sender);\r\n    emit fileAdded( _fileName, _fileHash, _fileType, _fileDescription, totalFiles,  _fileSize, block.timestamp, msg.sender);\r\n  }\r\n}",
  "sourcePath": "C:/Users/Shameer/Projects/reactstudy/storage_system/src/contracts/StorageSystem.sol",
  "compiler": {
    "name": "solc",
    "version": "0.5.16+commit.9c3226ce.Emscripten.clang"
  },
  "schemaVersion": "3.3.4",
  "updatedAt": "2021-09-02T10:59:18.191Z",
  "networkType": "ethereum",
  "devdoc": {
    "methods": {}
  },
  "userdoc": {
    "methods": {}
  }
}